:100000000C945D000C9485000C9485000C94850084
:100010000C9485000C9485000C9485000C9485004C
:100020000C9485000C9485000C9485000C94E703D7
:100030000C9485000C9485000C9485000C9485002C
:100040000C949D030C9485000C946B030C94450355
:100050000C9485000C9485000C9485000C9485000C
:100060000C9485000C94850000000008000201003B
:100070000003040700000000000000000000000072
:10008000250028002B0000000000240027002A0083
:10009000040404040404040402020202020203032E
:1000A0000303030301020408102040800102040836
:1000B0001020010204081020A30411241FBECFEF5A
:1000C000D8E0DEBFCDBF11E0A0E0B1E0E8EBFFE09B
:1000D00002C005900D92A033B107D9F722E0A0E34A
:1000E000B1E001C01D92A330B207E1F710E0CDE509
:1000F000D0E004C02197FE010E94D407CC35D1077F
:10010000C9F70E9400050C94DA070C940000CF9206
:10011000DF92EF92FF92DC01A03282E0B807D4F5C3
:10012000A53BB10514F0A4EBB0E04091010228E832
:1001300030E0241B310947FD3395220F331F220F76
:10014000331F6901330FEE08FF084091020228E5D2
:1001500032E0241B310947FD3395220F331F220F54
:10016000331F032E000C440B550B2C193D094E096F
:100170005F09B7FF02C0B0E0A0E00E948F0724EB48
:1001800030E040E050E00E946507C20ED31EE41E3E
:10019000F51ED601E0910002EC3080F520910102BD
:1001A00088E890E0821B910927FD9395880F991F9D
:1001B000880F991FA817B90784F02091020288E5DB
:1001C00092E0821B910927FD9395880F991F880F54
:1001D000991FA817B9070CF4CD010297880F991F32
:1001E0004FB7F8942E2F30E0F901EE0FFF1FE20F0A
:1001F000F31FE552FE4F928381834FBFFF90EF9034
:10020000DF90CF900895AF92BF92CF92DF92EF929E
:10021000FF920F931F93CF93DF936C017B018B01B0
:10022000040F151FEB015E01AE18BF08C017D10700
:1002300059F06991D601ED91FC910190F081E02D8A
:10024000C6010995892B79F7C501DF91CF911F91DF
:100250000F91FF90EF90DF90CF90BF90AF900895F7
:10026000FC01538D448D252F30E0842F90E0821BBC
:10027000930B541710F0CF96089501970895FC0141
:10028000918D828D981761F0A28DAE0FBF2FB11D99
:100290005D968C91928D9F5F9F73928F90E00895F1
:1002A0008FEF9FEF0895FC01918D828D981731F0AB
:1002B000828DE80FF11D858D90E008958FEF9FEFFF
:1002C0000895FC01918D228D892F90E0805C9F4FD5
:1002D000821B91098F73992708958EE391E00E9404
:1002E000610121E0892B09F420E0822F089580E04C
:1002F00090E0892B29F00E946D0181110C9400007F
:100300000895FC01A48DA80FB92FB11DA35ABF4FAA
:100310002C91848D90E001968F739927848FA68904
:10032000B7892C93A089B1898C91837080648C9358
:10033000938D848D981306C00288F389E02D808107
:100340008F7D80830895EF92FF920F931F93CF9339
:10035000DF93EC0181E0888F9B8D8C8D98131AC000
:10036000E889F989808185FF15C09FB7F894EE89E7
:10037000FF896083E889F989808183708064808344
:100380009FBF81E090E0DF91CF911F910F91FF908F
:10039000EF900895F62E0B8D10E00F5F1F4F0F7337
:1003A0001127E02E8C8D8E110CC00FB607FCFACFF2
:1003B000E889F989808185FFF5CFCE010E9481010E
:1003C000F1CFEB8DEC0FFD2FF11DE35AFF4FF082C3
:1003D0009FB7F8940B8FEA89FB8980818062CFCF29
:1003E000CF93DF93EC01888D8823B9F0AA89BB896C
:1003F000E889F9898C9185FD03C0808186FD0DC057
:100400000FB607FCF7CF8C9185FFF2CF808185FF77
:10041000EDCFCE010E948101E9CFDF91CF91089508
:1004200090E0FC01E859FF4F2491FC01EC55FF4F8F
:100430003491FC01E057FF4FE491EE23C9F02223F1
:1004400039F0233001F1A8F4213019F1223029F1DB
:10045000F0E0EE0FFF1FE458FF4FA591B4918FB766
:10046000F894EC91611126C030953E233C938FBFE8
:1004700008952730A9F02830C9F0243049F7809139
:1004800080008F7D03C0809180008F7780938000F3
:10049000DFCF84B58F7784BDDBCF84B58F7DFBCF75
:1004A0008091B0008F778093B000D2CF8091B00060
:1004B0008F7DF9CF3E2BDACF3FB7F894809136018C
:1004C00090913701A0913801B091390126B5A89BD0
:1004D00005C02F3F19F00196A11DB11D3FBFBA2FD6
:1004E000A92F982F8827BC01CD01620F711D811D96
:1004F000911D42E0660F771F881F991F4A95D1F71B
:1005000008958F929F92AF92BF92CF92DF92EF9217
:10051000FF924B015C010E945C026B017C010E9416
:100520005C026C197D098E099F09683E7340810544
:100530009105A8F321E0821A9108A108B10888EE7C
:10054000C80E83E0D81EE11CF11C81149104A104A3
:10055000B10429F7FF90EF90DF90CF90BF90AF905C
:100560009F908F900895FC0101900020E9F731974A
:10057000AF01481B590BBC018EE391E00C940301C1
:100580008F929F92AF92BF92CF92DF92EF92FF92A3
:100590000F931F93CF93DF93CDB7DEB7A1970FB61D
:1005A000F894DEBF0FBECDBF6C01990FEE08FF08B7
:1005B000F7FE47C06DE28EE391E00E94A3018C013B
:1005C00022273327A9012C193D094E095F0919A2D9
:1005D000CE0181967C019AE0892E912CA12CB12C20
:1005E000CA01B901A50194010E949707605DF70156
:1005F00062937F01211531054105510589F790E08E
:1006000080E0309719F0CF010E94B302080F191F44
:1006100082E191E00E94B302800F911FA1960FB674
:10062000F894DEBF0FBECDBFDF91CF911F910F9128
:10063000FF90EF90DF90CF90BF90AF909F908F9002
:100640000895A701960119A28E010F5D1F4F8AE040
:10065000C82ED12CE12CF12CCA01B901A7019601B9
:100660000E949707605DF80162938F0121153105A3
:100670004105510589F7309729F0CF010E94B30257
:100680008C01C6CF10E000E0C3CF1F920F920FB6CF
:100690000F9211242F933F934F935F936F937F9308
:1006A0008F939F93AF93BF93EF93FF938EE391E06C
:1006B0000E948101FF91EF91BF91AF919F918F9126
:1006C0007F916F915F914F913F912F910F900FBE4E
:1006D0000F901F9018951F920F920FB60F92112432
:1006E0002F938F939F93EF93FF93E0914E01F0919F
:1006F0004F018081E0915401F091550182FD1BC0B2
:100700009081809157018F5F8F73209158018217DC
:1007100041F0E0915701F0E0E25CFE4F958F80934D
:100720005701FF91EF919F918F912F910F900FBEE5
:100730000F901F9018958081F4CF1F920F920FB6E3
:100740000F9211242F933F938F939F93AF93BF9357
:100750008091320190913301A0913401B091350123
:100760003091310123E0230F2D3758F50196A11D5B
:10077000B11D209331018093320190933301A093F6
:100780003401B09335018091360190913701A091E9
:100790003801B09139010196A11DB11D8093360138
:1007A00090933701A0933801B0933901BF91AF9175
:1007B0009F918F913F912F910F900FBE0F901F909F
:1007C000189526E8230F0296A11DB11DD2CF1F92C6
:1007D0000F920FB60F9211242F933F934F935F9375
:1007E0006F937F938F939F93AF93BF93CF93DF9339
:1007F000EF93FF9380913001C091FF01D0E087FF1C
:1008000024C01092850010928400809130018F5F87
:100810008093300180913001082E000C990B8C17C9
:100820009D0724F4809130018C30C4F180918400C4
:1008300090918500049680349C4908F47AC0809198
:10084000840090918500049676C080913001082E36
:10085000000C990B8C179D07C4F6E09130018E2F88
:10086000EE0F990BFC01EE0FFF1FE80FF91FE55289
:10087000FE4F808186FFC9CFE09130018E2FEE0FB1
:10088000990BFC01EE0FFF1FE80FF91FE552FE4F19
:10089000808160E08F730E941002B7CF20918400A6
:1008A00030918500E09130018E2FEE0F990BFC0105
:1008B000EE0FFF1FE80FF91FE552FE4F8181928175
:1008C000820F931F9093890080938800E0913001FC
:1008D0008E2FEE0F990BFC01EE0FFF1FE80FF91F93
:1008E000E552FE4F808186FF11C0E09130018E2FCE
:1008F000EE0F990BFC01EE0FFF1FE80FF91FE552F9
:10090000FE4F808161E08F730E941002FF91EF9192
:10091000DF91CF91BF91AF919F918F917F916F9117
:100920005F914F913F912F910F900FBE0F901F90AD
:10093000189580E49CE990938900809388008FEF5C
:1009400080933001E3CF109241011092400188EE74
:1009500093E0A0E0B0E08093420190934301A09324
:100960004401B093450184E091E090933F0180936E
:100970003E0185EC90E090934B0180934A0184EC1A
:1009800090E090934D0180934C0180EC90E0909327
:100990004F0180934E0181EC90E090935101809340
:1009A000500182EC90E0909353018093520186ECC9
:1009B00090E090935501809354011092570110924A
:1009C00058011092590110925A018091FF018C3008
:1009D00098F491E0980F9093FF018093000290E0CB
:1009E000FC01EE0FFF1FE80FF91FE552FE4F88EBE9
:1009F0009BE09283818308958FEF80930002089596
:100A0000789484B5826084BD84B5816084BD85B5E9
:100A1000826085BD85B5816085BD80916E008160F5
:100A200080936E001092810080918100826080939B
:100A3000810080918100816080938100809180009D
:100A40008160809380008091B10084608093B100C8
:100A50008091B00081608093B00080917A008460C2
:100A600080937A0080917A00826080937A008091EE
:100A70007A00816080937A0080917A008068809308
:100A80007A001092C100E2EBF0E02491EEE9F0E090
:100A900084918823C1F090E0880F991FFC01EA57E8
:100AA000FF4FC591D491FC01E458FF4FA591B4913B
:100AB0009FB7F8948881E22FE0958E2388838C91EC
:100AC000E823EC939FBF809100028C3008F06AC04D
:100AD000EDEAF0E02491E9E9F0E08491882399F0CF
:100AE00090E0880F991FFC01EA57FF4FA591B49140
:100AF000FC01E458FF4F859194918FB7F894EC91E5
:100B0000E22BEC938FBF80910002282F30E0F90197
:100B1000EE0FFF1FE20FF31FE552FE4F9081907C16
:100B2000996090839EE89093010294E6909302026C
:100B30002CE0622F0E94C807829FB001112430E090
:100B400020E0AB01420F531FFA01EE0FFF1FE40F2D
:100B5000F51FE552FE4F908196FD16C02F5F3F4F67
:100B60002C30310571F781110FC01092800082E0A6
:100B7000809381001092850010928400B19A809138
:100B80006F00826080936F00E09100028E2F90E0F2
:100B9000FC01EE0FFF1FE80FF91FE552FE4F8081A9
:100BA00080648083E0914E01F0914F0182E0808368
:100BB000E0914A01F0914B011082E0914C01F091DB
:100BC0004D018FEC808310925601E0915201F0911B
:100BD000530186E08083E0915001F09151018081C2
:100BE00080618083E0915001F091510180818860A3
:100BF0008083E0915001F091510180818068808371
:100C0000E0915001F091510180818F7D8083C5E09A
:100C10008C2E912CAEE1AA2EB12C22242394312CBF
:100C200080E480937C0080917A00806480937A00D5
:100C300080917A0086FDFCCF809178002091790028
:100C4000322F282F032E000C440B550B2C59324009
:100C500041095109AAE5B0E00E9484072BEA3EEF62
:100C60004FEF5FEF0E9465076901E90185E191E0BF
:100C70000E94B302C6010E94C002E0913C01F091C3
:100C80003D01E830F105C0F4E85BF94F0C94D4075E
:100C90005006CE06E306EF06FF060C071D073007D9
:100CA0002FE0C216D10440F430923D0120923C0165
:100CB000B0923B01A0923A0100913A0110913B01A0
:100CC0008091020278E5C72E72E0D72EC81AD108AB
:100CD00087FDD394CC0CDD1CCC0CDD1C0D2C000C42
:100CE000EE08FF088091010228E830E0281B310956
:100CF00087FD3395C901880F991F880F991F2C0113
:100D0000990F660877082091000290E080E02F3F5D
:100D1000D1F030E0C901880F991F820F931FFC01A9
:100D2000E552FE4F8181928153E0880F991F5A95B9
:100D3000E1F7B0E0A0E064E0B595A79597958795B9
:100D40006A95D1F702969C012F5F3F4F032E000C4E
:100D5000440B550B2419350946095709A4EBB0E09B
:100D60000E948407A70196012419350946095709ED
:100D70000E946507E901201731070CF079C00C17B4
:100D80001D070CF485C0CE010E9487006FE070E063
:100D900080E090E00E9481022196F1CF36E0C31AF4
:100DA000D1088FE0C816D10408F086CF22E030E0E9
:100DB00030933D0120933C018CE390E090933B0104
:100DC00080933A0179CF95E0C916D10408F074CF29
:100DD00023E030E030933D0120933C0169CF3EE1B8
:100DE000C316D10408F068CF84E090E090933D01F1
:100DF00080933C0110923B0110923A015DCF9EE13D
:100E0000C91AD1082EE1C216D10408F055CF90922C
:100E10003D0180923C01EECF39E2C31AD10884E152
:100E2000C816D10408F048CF26E030E030933D01E9
:100E300020933C018FE090E0C1CF96E0C91AD10821
:100E400029E1C216D10408F037CF87E090E09093F3
:100E50003D0180933C0190923B0180923A012CCF5E
:100E6000CD2B09F029CF10923D0110923C01C2CF49
:100E7000021713076CF4CE010E9487006FE070E048
:100E800080E090E00E9481022197C017D1079CF773
:100E900082E291E00E94B30280913A0190913B017D
:100EA0000E94C00268EE73E080E090E00E94810240
:100EB00080E090E0892B09F4B3CE0E946D01882375
:100EC00009F4A8CE0E940000A5CE052E97FB1EF4C3
:100ED00000940E947C0757FD07D00E94970707FCEB
:100EE00003D04EF40C947C07509540953095219595
:100EF0003F4F4F4F5F4F0895909580957095619546
:100F00007F4F8F4F9F4F08950E94B907A59F900D67
:100F1000B49F900DA49F800D911D11240895B7FFDB
:100F20000C9484070E948407821B930B0895A1E20E
:100F30001A2EAA1BBB1BFD010DC0AA1FBB1FEE1F53
:100F4000FF1FA217B307E407F50720F0A21BB30B9E
:100F5000E40BF50B661F771F881F991F1A9469F71A
:100F600060957095809590959B01AC01BD01CF0176
:100F70000895A29FB001B39FC001A39F700D811D72
:100F80001124911DB29F700D811D1124911D089592
:100F9000991B79E004C0991F961708F0961B881FCB
:100FA0007A95C9F780950895EE0FFF1F0590F4918B
:080FB000E02D0994F894FFCF35
:100FB80000000000A30103013001F00161013F01BD
:100FC80053010D0A00466C657820416E676C653ADE
:100FD80020004B6E656520416E676C653A20000005
:00000001FF
